{
  "contractName": "Election",
  "abi": [
    {
      "inputs": [],
      "payable": false,
      "stateMutability": "nonpayable",
      "type": "constructor"
    },
    {
      "anonymous": false,
      "inputs": [
        {
          "indexed": true,
          "internalType": "address",
          "name": "owner",
          "type": "address"
        },
        {
          "indexed": true,
          "internalType": "address",
          "name": "spender",
          "type": "address"
        },
        {
          "indexed": false,
          "internalType": "uint256",
          "name": "value",
          "type": "uint256"
        }
      ],
      "name": "Approval",
      "type": "event"
    },
    {
      "anonymous": false,
      "inputs": [
        {
          "indexed": true,
          "internalType": "address",
          "name": "owner",
          "type": "address"
        },
        {
          "indexed": true,
          "internalType": "uint256",
          "name": "id",
          "type": "uint256"
        },
        {
          "indexed": false,
          "internalType": "string",
          "name": "tag",
          "type": "string"
        }
      ],
      "name": "Register",
      "type": "event"
    },
    {
      "anonymous": false,
      "inputs": [
        {
          "indexed": true,
          "internalType": "address",
          "name": "from",
          "type": "address"
        },
        {
          "indexed": true,
          "internalType": "address",
          "name": "to",
          "type": "address"
        },
        {
          "indexed": false,
          "internalType": "uint256",
          "name": "value",
          "type": "uint256"
        }
      ],
      "name": "Transfer",
      "type": "event"
    },
    {
      "anonymous": false,
      "inputs": [
        {
          "indexed": true,
          "internalType": "address",
          "name": "owner",
          "type": "address"
        },
        {
          "indexed": true,
          "internalType": "uint256",
          "name": "id",
          "type": "uint256"
        }
      ],
      "name": "Vote",
      "type": "event"
    },
    {
      "constant": true,
      "inputs": [
        {
          "internalType": "address",
          "name": "",
          "type": "address"
        },
        {
          "internalType": "address",
          "name": "",
          "type": "address"
        }
      ],
      "name": "allowance",
      "outputs": [
        {
          "internalType": "uint256",
          "name": "",
          "type": "uint256"
        }
      ],
      "payable": false,
      "stateMutability": "view",
      "type": "function"
    },
    {
      "constant": true,
      "inputs": [
        {
          "internalType": "address",
          "name": "",
          "type": "address"
        }
      ],
      "name": "balanceOf",
      "outputs": [
        {
          "internalType": "uint256",
          "name": "",
          "type": "uint256"
        }
      ],
      "payable": false,
      "stateMutability": "view",
      "type": "function"
    },
    {
      "constant": true,
      "inputs": [],
      "name": "candidateCount",
      "outputs": [
        {
          "internalType": "uint256",
          "name": "",
          "type": "uint256"
        }
      ],
      "payable": false,
      "stateMutability": "view",
      "type": "function"
    },
    {
      "constant": true,
      "inputs": [
        {
          "internalType": "uint256",
          "name": "",
          "type": "uint256"
        }
      ],
      "name": "candidates",
      "outputs": [
        {
          "internalType": "address",
          "name": "owner",
          "type": "address"
        },
        {
          "internalType": "uint256",
          "name": "id",
          "type": "uint256"
        },
        {
          "internalType": "string",
          "name": "tag",
          "type": "string"
        },
        {
          "internalType": "uint256",
          "name": "numVotes",
          "type": "uint256"
        }
      ],
      "payable": false,
      "stateMutability": "view",
      "type": "function"
    },
    {
      "constant": true,
      "inputs": [],
      "name": "decimals",
      "outputs": [
        {
          "internalType": "uint8",
          "name": "",
          "type": "uint8"
        }
      ],
      "payable": false,
      "stateMutability": "view",
      "type": "function"
    },
    {
      "constant": true,
      "inputs": [],
      "name": "name",
      "outputs": [
        {
          "internalType": "string",
          "name": "",
          "type": "string"
        }
      ],
      "payable": false,
      "stateMutability": "view",
      "type": "function"
    },
    {
      "constant": true,
      "inputs": [],
      "name": "symbol",
      "outputs": [
        {
          "internalType": "string",
          "name": "",
          "type": "string"
        }
      ],
      "payable": false,
      "stateMutability": "view",
      "type": "function"
    },
    {
      "constant": true,
      "inputs": [],
      "name": "totalSupply",
      "outputs": [
        {
          "internalType": "uint256",
          "name": "",
          "type": "uint256"
        }
      ],
      "payable": false,
      "stateMutability": "view",
      "type": "function"
    },
    {
      "constant": true,
      "inputs": [],
      "name": "voteCount",
      "outputs": [
        {
          "internalType": "uint256",
          "name": "",
          "type": "uint256"
        }
      ],
      "payable": false,
      "stateMutability": "view",
      "type": "function"
    },
    {
      "constant": false,
      "inputs": [
        {
          "internalType": "uint256",
          "name": "_id",
          "type": "uint256"
        }
      ],
      "name": "vote",
      "outputs": [],
      "payable": false,
      "stateMutability": "nonpayable",
      "type": "function"
    },
    {
      "constant": false,
      "inputs": [
        {
          "internalType": "string",
          "name": "_tag",
          "type": "string"
        }
      ],
      "name": "register",
      "outputs": [],
      "payable": false,
      "stateMutability": "nonpayable",
      "type": "function"
    },
    {
      "constant": true,
      "inputs": [
        {
          "internalType": "uint256",
          "name": "_cidx",
          "type": "uint256"
        }
      ],
      "name": "getCandidate",
      "outputs": [
        {
          "internalType": "address",
          "name": "addy",
          "type": "address"
        },
        {
          "internalType": "uint256",
          "name": "id",
          "type": "uint256"
        },
        {
          "internalType": "string",
          "name": "tag",
          "type": "string"
        },
        {
          "internalType": "uint256",
          "name": "numVotes",
          "type": "uint256"
        }
      ],
      "payable": false,
      "stateMutability": "view",
      "type": "function"
    },
    {
      "constant": true,
      "inputs": [
        {
          "internalType": "address",
          "name": "_voter",
          "type": "address"
        }
      ],
      "name": "hasVoted",
      "outputs": [
        {
          "internalType": "bool",
          "name": "",
          "type": "bool"
        }
      ],
      "payable": false,
      "stateMutability": "view",
      "type": "function"
    },
    {
      "constant": false,
      "inputs": [
        {
          "internalType": "address",
          "name": "spender",
          "type": "address"
        },
        {
          "internalType": "uint256",
          "name": "value",
          "type": "uint256"
        }
      ],
      "name": "approve",
      "outputs": [
        {
          "internalType": "bool",
          "name": "",
          "type": "bool"
        }
      ],
      "payable": false,
      "stateMutability": "nonpayable",
      "type": "function"
    },
    {
      "constant": false,
      "inputs": [
        {
          "internalType": "address",
          "name": "to",
          "type": "address"
        },
        {
          "internalType": "uint256",
          "name": "value",
          "type": "uint256"
        }
      ],
      "name": "transfer",
      "outputs": [
        {
          "internalType": "bool",
          "name": "",
          "type": "bool"
        }
      ],
      "payable": false,
      "stateMutability": "nonpayable",
      "type": "function"
    },
    {
      "constant": false,
      "inputs": [
        {
          "internalType": "address",
          "name": "from",
          "type": "address"
        },
        {
          "internalType": "address",
          "name": "to",
          "type": "address"
        },
        {
          "internalType": "uint256",
          "name": "value",
          "type": "uint256"
        }
      ],
      "name": "transferFrom",
      "outputs": [
        {
          "internalType": "bool",
          "name": "",
          "type": "bool"
        }
      ],
      "payable": false,
      "stateMutability": "nonpayable",
      "type": "function"
    }
  ],
  "bytecode": "0x60806040523480156200001157600080fd5b50620000253360646200002b60201b60201c565b620001d7565b62000047816005546200015360201b620015971790919060201c565b600581905550620000a681600660008573ffffffffffffffffffffffffffffffffffffffff1673ffffffffffffffffffffffffffffffffffffffff168152602001908152602001600020546200015360201b620015971790919060201c565b600660008473ffffffffffffffffffffffffffffffffffffffff1673ffffffffffffffffffffffffffffffffffffffff168152602001908152602001600020819055508173ffffffffffffffffffffffffffffffffffffffff16600073ffffffffffffffffffffffffffffffffffffffff167fddf252ad1be2c89b69c2b068fc378daa952ba7f163c4a11628f55a4df523b3ef836040518082815260200191505060405180910390a35050565b6000828284019150811015620001d1576040517f08c379a00000000000000000000000000000000000000000000000000000000081526004018080602001828103825260148152602001807f64732d6d6174682d6164642d6f766572666c6f7700000000000000000000000081525060200191505060405180910390fd5b92915050565b6116f480620001e76000396000f3fe608060405234801561001057600080fd5b50600436106101005760003560e01c806335b8e82011610097578063a9a981a311610066578063a9a981a314610651578063c63840711461066f578063dd62ed3e1461068d578063f2c298be1461070557610100565b806335b8e8201461042857806370a082311461051057806395d89b4114610568578063a9059cbb146105eb57610100565b806318160ddd116100d357806318160ddd1461027857806323b872dd14610296578063313ce5671461031c5780633477ee2e1461034057610100565b80630121b93f1461010557806306fdde0314610133578063095ea7b3146101b657806309eef43e1461021c575b600080fd5b6101316004803603602081101561011b57600080fd5b81019080803590602001909291905050506107c0565b005b61013b610a7a565b6040518080602001828103825283818151815260200191508051906020019080838360005b8381101561017b578082015181840152602081019050610160565b50505050905090810190601f1680156101a85780820380516001836020036101000a031916815260200191505b509250505060405180910390f35b610202600480360360408110156101cc57600080fd5b81019080803573ffffffffffffffffffffffffffffffffffffffff16906020019092919080359060200190929190505050610ab3565b604051808215151515815260200191505060405180910390f35b61025e6004803603602081101561023257600080fd5b81019080803573ffffffffffffffffffffffffffffffffffffffff169060200190929190505050610aca565b604051808215151515815260200191505060405180910390f35b610280610b28565b6040518082815260200191505060405180910390f35b610302600480360360608110156102ac57600080fd5b81019080803573ffffffffffffffffffffffffffffffffffffffff169060200190929190803573ffffffffffffffffffffffffffffffffffffffff16906020019092919080359060200190929190505050610b2e565b604051808215151515815260200191505060405180910390f35b610324610cf9565b604051808260ff1660ff16815260200191505060405180910390f35b61036c6004803603602081101561035657600080fd5b8101908080359060200190929190505050610cfe565b604051808573ffffffffffffffffffffffffffffffffffffffff1673ffffffffffffffffffffffffffffffffffffffff16815260200184815260200180602001838152602001828103825284818151815260200191508051906020019080838360005b838110156103ea5780820151818401526020810190506103cf565b50505050905090810190601f1680156104175780820380516001836020036101000a031916815260200191505b509550505050505060405180910390f35b6104546004803603602081101561043e57600080fd5b8101908080359060200190929190505050610de6565b604051808573ffffffffffffffffffffffffffffffffffffffff1673ffffffffffffffffffffffffffffffffffffffff16815260200184815260200180602001838152602001828103825284818151815260200191508051906020019080838360005b838110156104d25780820151818401526020810190506104b7565b50505050905090810190601f1680156104ff5780820380516001836020036101000a031916815260200191505b509550505050505060405180910390f35b6105526004803603602081101561052657600080fd5b81019080803573ffffffffffffffffffffffffffffffffffffffff169060200190929190505050610ee1565b6040518082815260200191505060405180910390f35b610570610ef9565b6040518080602001828103825283818151815260200191508051906020019080838360005b838110156105b0578082015181840152602081019050610595565b50505050905090810190601f1680156105dd5780820380516001836020036101000a031916815260200191505b509250505060405180910390f35b6106376004803603604081101561060157600080fd5b81019080803573ffffffffffffffffffffffffffffffffffffffff16906020019092919080359060200190929190505050610f32565b604051808215151515815260200191505060405180910390f35b610659610f49565b6040518082815260200191505060405180910390f35b610677610f4f565b6040518082815260200191505060405180910390f35b6106ef600480360360408110156106a357600080fd5b81019080803573ffffffffffffffffffffffffffffffffffffffff169060200190929190803573ffffffffffffffffffffffffffffffffffffffff169060200190929190505050610f55565b6040518082815260200191505060405180910390f35b6107be6004803603602081101561071b57600080fd5b810190808035906020019064010000000081111561073857600080fd5b82018360208201111561074a57600080fd5b8035906020019184600183028401116401000000008311171561076c57600080fd5b91908080601f016020809104026020016040519081016040528093929190818152602001838380828437600081840152601f19601f820116905080830192505050505050509192919290505050610f7a565b005b806001541015610838576040517f08c379a000000000000000000000000000000000000000000000000000000000815260040180806020018281038252601b8152602001807f63616e646964617465206973206e6f742072656769737465726564000000000081525060200191505060405180910390fd5b60008114156108af576040517f08c379a00000000000000000000000000000000000000000000000000000000081526004018080602001828103825260148152602001807f63616e646964617465206964206973207a65726f00000000000000000000000081525060200191505060405180910390fd5b60001515600360003373ffffffffffffffffffffffffffffffffffffffff1673ffffffffffffffffffffffffffffffffffffffff16815260200190815260200160002060010160009054906101000a900460ff16151514610978576040517f08c379a00000000000000000000000000000000000000000000000000000000081526004018080602001828103825260168152602001807f596f75206861766520616c726561647920766f7465640000000000000000000081525060200191505060405180910390fd5b600460008154809291906001019190505550604051806040016040528082815260200160011515815250600360003373ffffffffffffffffffffffffffffffffffffffff1673ffffffffffffffffffffffffffffffffffffffff1681526020019081526020016000206000820151816000015560208201518160010160006101000a81548160ff02191690831515021790555090505060008082815260200190815260200160002060030160008154809291906001019190505550803373ffffffffffffffffffffffffffffffffffffffff167ff668ead05c744b9178e571d2edb452e72baf6529c8d72160e64e59b50d865bd060405160405180910390a350565b6040518060400160405280600781526020017f537469636b65720000000000000000000000000000000000000000000000000081525081565b6000610ac0338484611295565b6001905092915050565b600080600360008473ffffffffffffffffffffffffffffffffffffffff1673ffffffffffffffffffffffffffffffffffffffff16815260200190815260200160002090508060010160009054906101000a900460ff16915050919050565b60055481565b60007fffffffffffffffffffffffffffffffffffffffffffffffffffffffffffffffff600760008673ffffffffffffffffffffffffffffffffffffffff1673ffffffffffffffffffffffffffffffffffffffff16815260200190815260200160002060003373ffffffffffffffffffffffffffffffffffffffff1673ffffffffffffffffffffffffffffffffffffffff1681526020019081526020016000205414610ce357610c6282600760008773ffffffffffffffffffffffffffffffffffffffff1673ffffffffffffffffffffffffffffffffffffffff16815260200190815260200160002060003373ffffffffffffffffffffffffffffffffffffffff1673ffffffffffffffffffffffffffffffffffffffff1681526020019081526020016000205461138090919063ffffffff16565b600760008673ffffffffffffffffffffffffffffffffffffffff1673ffffffffffffffffffffffffffffffffffffffff16815260200190815260200160002060003373ffffffffffffffffffffffffffffffffffffffff1673ffffffffffffffffffffffffffffffffffffffff168152602001908152602001600020819055505b610cee848484611403565b600190509392505050565b600081565b60006020528060005260406000206000915090508060000160009054906101000a900473ffffffffffffffffffffffffffffffffffffffff1690806001015490806002018054600181600116156101000203166002900480601f016020809104026020016040519081016040528092919081815260200182805460018160011615610100020316600290048015610dd65780601f10610dab57610100808354040283529160200191610dd6565b820191906000526020600020905b815481529060010190602001808311610db957829003601f168201915b5050505050908060030154905084565b600080606060008060008087815260200190815260200160002090508060000160009054906101000a900473ffffffffffffffffffffffffffffffffffffffff168160010154826002018360030154818054600181600116156101000203166002900480601f016020809104026020016040519081016040528092919081815260200182805460018160011615610100020316600290048015610eca5780601f10610e9f57610100808354040283529160200191610eca565b820191906000526020600020905b815481529060010190602001808311610ead57829003601f168201915b505050505091509450945094509450509193509193565b60066020528060005260406000206000915090505481565b6040518060400160405280600581526020017f5354434b5200000000000000000000000000000000000000000000000000000081525081565b6000610f3f338484611403565b6001905092915050565b60015481565b60045481565b6007602052816000526040600020602052806000526040600020600091509150505481565b6000600260003373ffffffffffffffffffffffffffffffffffffffff1673ffffffffffffffffffffffffffffffffffffffff168152602001908152602001600020541461102f576040517f08c379a000000000000000000000000000000000000000000000000000000000815260040180806020018281038252601a8152602001807f596f752061726520616c7265616479207265676973746572656400000000000081525060200191505060405180910390fd5b6040518060200160405280600081525080519060200120818051906020012014156110c2576040517f08c379a000000000000000000000000000000000000000000000000000000000815260040180806020018281038252600b8152602001807f496e76616c69642074616700000000000000000000000000000000000000000081525060200191505060405180910390fd5b6001805401600181905550600154600260003373ffffffffffffffffffffffffffffffffffffffff1673ffffffffffffffffffffffffffffffffffffffff1681526020019081526020016000208190555060405180608001604052803373ffffffffffffffffffffffffffffffffffffffff16815260200160015481526020018281526020016000815250600080600154815260200190815260200160002060008201518160000160006101000a81548173ffffffffffffffffffffffffffffffffffffffff021916908373ffffffffffffffffffffffffffffffffffffffff1602179055506020820151816001015560408201518160020190805190602001906111ce92919061161a565b50606082015181600301559050506001543373ffffffffffffffffffffffffffffffffffffffff167ffd7cce4ad4056ce11f491575da172369a8731f4cd81ef1eedb704c7e304f19cc836040518080602001828103825283818151815260200191508051906020019080838360005b8381101561125857808201518184015260208101905061123d565b50505050905090810190601f1680156112855780820380516001836020036101000a031916815260200191505b509250505060405180910390a350565b80600760008573ffffffffffffffffffffffffffffffffffffffff1673ffffffffffffffffffffffffffffffffffffffff16815260200190815260200160002060008473ffffffffffffffffffffffffffffffffffffffff1673ffffffffffffffffffffffffffffffffffffffff168152602001908152602001600020819055508173ffffffffffffffffffffffffffffffffffffffff168373ffffffffffffffffffffffffffffffffffffffff167f8c5be1e5ebec7d5bd14f71427d1e84f3dd0314c0f7b2291e5b200ac8c7c3b925836040518082815260200191505060405180910390a3505050565b60008282840391508111156113fd576040517f08c379a00000000000000000000000000000000000000000000000000000000081526004018080602001828103825260158152602001807f64732d6d6174682d7375622d756e646572666c6f77000000000000000000000081525060200191505060405180910390fd5b92915050565b61145581600660008673ffffffffffffffffffffffffffffffffffffffff1673ffffffffffffffffffffffffffffffffffffffff1681526020019081526020016000205461138090919063ffffffff16565b600660008573ffffffffffffffffffffffffffffffffffffffff1673ffffffffffffffffffffffffffffffffffffffff168152602001908152602001600020819055506114ea81600660008573ffffffffffffffffffffffffffffffffffffffff1673ffffffffffffffffffffffffffffffffffffffff1681526020019081526020016000205461159790919063ffffffff16565b600660008473ffffffffffffffffffffffffffffffffffffffff1673ffffffffffffffffffffffffffffffffffffffff168152602001908152602001600020819055508173ffffffffffffffffffffffffffffffffffffffff168373ffffffffffffffffffffffffffffffffffffffff167fddf252ad1be2c89b69c2b068fc378daa952ba7f163c4a11628f55a4df523b3ef836040518082815260200191505060405180910390a3505050565b6000828284019150811015611614576040517f08c379a00000000000000000000000000000000000000000000000000000000081526004018080602001828103825260148152602001807f64732d6d6174682d6164642d6f766572666c6f7700000000000000000000000081525060200191505060405180910390fd5b92915050565b828054600181600116156101000203166002900490600052602060002090601f016020900481019282601f1061165b57805160ff1916838001178555611689565b82800160010185558215611689579182015b8281111561168857825182559160200191906001019061166d565b5b509050611696919061169a565b5090565b6116bc91905b808211156116b85760008160009055506001016116a0565b5090565b9056fea265627a7a72315820b77edb5aa86d698411ae4a53bcf36e182880a7e4899a2b4615a73504535555a764736f6c63430005100032",
  "source": "// SPDX-License-Identifier: GPL-3.0\npragma solidity >=0.4.22 <0.8.0;\n\nimport './interfaces/IERC20.sol';\nimport './libraries/SafeMath.sol';\n\ncontract Election is IERC20 {\n    using SafeMath for uint; \n    \n    event Vote(address indexed owner, uint indexed id);\n    event Register(address indexed owner, uint indexed id, string tag);\n    event Approval(address indexed owner, address indexed spender, uint value);\n    event Transfer(address indexed from, address indexed to, uint value);\n\n    struct Candidate {\n        address owner;\n        uint id; \n        string tag;\n        uint numVotes; \n    }\n\n    struct Ballot {\n        uint id;\n        bool voted;\n    }\n\n    mapping(uint => Candidate) public candidates; \n    uint public candidateCount;\n    \n    mapping (address => uint) addressToId;\n    \n    mapping(address => Ballot) votes;\n    uint public voteCount; \n\n\n    string public constant name = 'Sticker';\n    string public constant symbol = 'STCKR';\n    uint8 public constant decimals = 0;\n    uint  public totalSupply;\n    mapping(address => uint) public balanceOf;\n    mapping(address => mapping(address => uint)) public allowance;\n    \n    function vote(uint _id) public {\n        require(\n            candidateCount >= _id, \n            \"candidate is not registered\"\n        ); \n\n        require(\n            _id != 0, \n            \"candidate id is zero\"\n        ); \n            \n        require(\n            votes[msg.sender].voted == false,\n            \"You have already voted\"\n        ); \n            \n        voteCount++; \n        votes[msg.sender] = Ballot({\n            id: _id,\n            voted: true\n        });\n        candidates[_id].numVotes++; \n\n        emit Vote(msg.sender, _id);\n    }\n    \n    function register(string memory _tag) public {\n    \n        require(\n            addressToId[msg.sender] == 0,\n            \"You are already registered\"\n            ); \n            \n        require(\n            keccak256(bytes(_tag)) != keccak256(bytes(\"\")),\n            \"Invalid tag\"\n            );\n        \n        candidateCount = candidateCount + 1;\n        addressToId[msg.sender] = candidateCount; \n        \n        candidates[candidateCount] = Candidate({\n            owner: msg.sender,\n            id: candidateCount,\n            tag: _tag, \n            numVotes: 0\n        }); \n\n        emit Register(msg.sender, candidateCount, _tag);\n    }\n\n    function getCandidate (uint _cidx) public view\n        returns (address addy, uint id, string memory tag, uint numVotes)\n    {\n        //assert there are enough candidates to return\n        Candidate storage candidate = candidates[_cidx];\n\n        return (\n            candidate.owner,\n            candidate.id, \n            candidate.tag, \n            candidate.numVotes\n        );\n    }\n\n    function hasVoted(address _voter) public view returns (bool) {\n        Ballot storage ballot = votes[_voter]; \n\n        return ballot.voted;\n    }\n\n    function _mint(address to, uint value) internal {\n        totalSupply = totalSupply.add(value);\n        balanceOf[to] = balanceOf[to].add(value);\n        emit Transfer(address(0), to, value);\n    }\n\n    function _burn(address from, uint value) internal {\n        balanceOf[from] = balanceOf[from].sub(value);\n        totalSupply = totalSupply.sub(value);\n        emit Transfer(from, address(0), value);\n    }\n\n    function _approve(address owner, address spender, uint value) private {\n        allowance[owner][spender] = value;\n        emit Approval(owner, spender, value);\n    }\n\n    function _transfer(address from, address to, uint value) private {\n        balanceOf[from] = balanceOf[from].sub(value);\n        balanceOf[to] = balanceOf[to].add(value);\n        emit Transfer(from, to, value);\n    }\n\n    function approve(address spender, uint value) external returns (bool) {\n        _approve(msg.sender, spender, value);\n        return true;\n    }\n\n    function transfer(address to, uint value) external returns (bool) {\n        _transfer(msg.sender, to, value);\n        return true;\n    }\n\n    function transferFrom(address from, address to, uint value) external returns (bool) {\n        if (allowance[from][msg.sender] != uint(-1)) {\n            allowance[from][msg.sender] = allowance[from][msg.sender].sub(value);\n        }\n        _transfer(from, to, value);\n        return true;\n    }\n\n    constructor () public {\n        _mint(msg.sender, 100); \n    }\n    \n}",
  "sourcePath": "/Users/kylescott/Documents/Personal/first_dapp/solidity_election/contracts/Election.sol",
  "compiler": {
    "name": "solc",
    "version": "0.5.16+commit.9c3226ce.Emscripten.clang"
  },
  "schemaVersion": "3.2.4",
  "updatedAt": "2021-03-26T02:14:17.154Z",
  "networkType": "ethereum",
  "devdoc": {
    "methods": {}
  },
  "userdoc": {
    "methods": {}
  }
}